:1000000088C00000A1C000009FC000009DC000008B
:100010009BC0000099C0000097C0000095C0000080
:1000200093C0000091C000008FC00000EFC300002B
:1000300091C4000089C0000087C0000085C0000096
:1000400083C0000081C000007FC000007DC00000B0
:100050007BC0000079C0000077C0000066C10000CE
:1000600073C0000071C000006FC000006DC00000D0
:100070006BC000002E034C005500460041002000DC
:100080005500530042002D0052005300320033004F
:1000900032002000410064006100700074006500BF
:1000A0007200000018034400650061006E0020002B
:1000B000430061006D0065007200610000000403F0
:1000C000090409023E00020100C0320904000001D7
:1000D0000202010005240010010424020605240682
:1000E0000001070582030800FF09040100020A005D
:1000F0000000070504021000050705830210000533
:100100001201100102000008EB034B200100010264
:10011000DC0111241FBECFEFD4E0DEBFCDBF11E064
:10012000A0E0B1E0EEEFFFE002C005900D92AE312D
:10013000B107D9F712E0AEE1B1E001C01D92A234DF
:10014000B107E1F757D059C75BCF9BB18095906657
:1001500089238BB90895FC01A081B1816C938081C2
:10016000918101969183808326813781821793073D
:1001700021F484819581918380832FB7F8948285BF
:1001800093850196938782872FBF0895FC01A281F2
:10019000B3818D91B383A28326813781A217B307E0
:1001A00021F424813581338322839FB7F8942285FB
:1001B000338521503109338722879FBF089584B743
:1001C000877F84BF88E10FB6F89480936000109217
:1001D00060000FBE90E080E80FB6F8948093610055
:1001E000909361000FBE8AB180668AB98BB1806638
:1001F0008BB9FDC2E4DFEEE1F1E04FB7F8948AE29B
:1002000091E09183808393838283958384838AEAB8
:1002100091E09783868320E830E03187208713863A
:1002200012864FBFEAEAF1E04FB7F89486EB91E00F
:1002300091838083938382839583848386E392E092
:100240009783868331872087138612864FBF80E28B
:100250007CDF78948FB7F8942091280130912901A0
:100260008FBF80912601909127012817390749F007
:1002700080E091E0B7D597FD04C0682F8EE191E052
:100280006ADF2FB7F8948091B4019091B5012FBF28
:10029000009751F42FB7F89480912801909129018B
:1002A0002FBF892B69F123C0209101012F7020936A
:1002B000E9002091E80020FFEDCF8031910510F09A
:1002C0008FE090E0182FC0E0D0E00EC0E091AC01CC
:1002D000F091AD01608180E091E01FD52196811100
:1002E000D9CF8AEA91E052DF1C13F0CFD3CF8EE151
:1002F00091E04CDF9091C80095FFFCCF8093CE0039
:1003000080E091E05AD5C9D4A5CF80E41ECF80E229
:100310001CCF80E091E0DCD4882311F080E401C0A0
:1003200080E213CF80E091E08AC51F920F920FB652
:100330000F9211242F933F934F935F936F937F936B
:100340008F939F93AF93BF93EF93FF936091CE00F2
:100350008EB3843019F48AEA91E0FDDEFF91EF91CB
:10036000BF91AF919F918F917F916F915F914F91CD
:100370003F912F910F900FBE0F901F901895CF9324
:10038000FC01A18DA150A23028F4B0E0A55EBE4FC3
:10039000CC9101C0C0E0808D823009F4C860828DAC
:1003A000873031F0883031F0863029F4C26003C0E4
:1003B000C46001C0C6601092C9001092C8001092BB
:1003C000CA002489358946895789CA01B901969599
:1003D00087957795679560587B47814E9F4FEBD502
:1003E000215031093093CD002093CC00C093CA0036
:1003F00082E08093C80088E98093C900CF91089576
:10040000292F33272230310539F02330310549F0C7
:100410002130310521F128C0EEE3F0E082EC90E0DC
:1004200027C099278130910561F08230910581F0D4
:10043000892BD1F4EEEBF0E0E491F0E08EEB90E06C
:1004400017C0E4EAF0E0E491F0E084EA90E010C044
:10045000E4E7F0E0E491F0E084E790E009C0E2E155
:10046000F0E080E091E004C0E0E0F0E080E090E0C7
:10047000DA018D939C93CF01089520914002309131
:1004800041022617370748F06115710539F42091AC
:10049000E8002E772093E80001C0B9019C0180E0BC
:1004A00033C09EB3992309F442C0953009F441C08A
:1004B0009091E80093FD39C09091E80092FD2FC023
:1004C0009091E80090FF20C08091F20090E0F90147
:1004D000821B930B05C021912093F100615071099B
:1004E0009F01280F391F6115710519F0283031055A
:1004F00090F381E02830310509F080E09091E80028
:100500009E779093E8009F016115710551F6811166
:10051000C8CF05C08EB3882351F0853051F080914B
:10052000E80082FFF7CF80E0089581E0089582E03F
:10053000089583E0089520914002309141022617EA
:10054000370748F06115710539F42091E8002E77DE
:100550002093E80001C0B9019C0180E034C09EB343
:10056000992309F443C0953009F442C09091E80002
:1005700093FD3AC09091E80092FD30C09091E80060
:1005800090FF21C08091F20090E0F901821B930B53
:1005900006C024912093F1003196615071099C01AD
:1005A0002E0F3F1F6115710519F02830310588F3B2
:1005B00081E02830310509F080E09091E8009E77D5
:1005C0009093E8009F016115710549F68111C7CF2D
:1005D00005C08EB3882351F0853051F08091E8003A
:1005E00082FFF7CF80E0089581E0089582E00895CA
:1005F00083E00895982F2CC09093E900981739F064
:100600007091EC002091ED005091F00003C0242F78
:10061000762F50E021FD02C09F5F1AC03091EB00A1
:100620003E7F3093EB003091ED003D7F3093ED0045
:100630003091EB0031603093EB007093EC0020932D
:10064000ED005093F0002091EE0027FDE5CF07C0AC
:10065000953090F28F708093E90081E0089580E0FA
:1006600008950F931F93CF93DF93062FEC0110E0B3
:100670002EC09881911103C01F5F259628C02C8140
:10068000E981FA816B81892F8F70853010F080E0CD
:1006900021C0223010F056E001C052E028E030E0E6
:1006A00040E003C04F5F220F331F2E173F07D0F3E8
:1006B0004295407F452B991F9927991F6295660F98
:1006C000660F607C692B96DF8111D6CFE0CF1013C7
:1006D000D0CF81E0DF91CF911F910F91089580914C
:1006E0003A0287FD05C08091E80080FF0DC010C070
:1006F0008091E80082FD04C08EB38111F9CF089586
:100700008091E8008B7707C08EB38111ECCF0895FC
:100710008091E8008E778093E80008958091E4004E
:100720009091E50045E62091EC0020FD1EC022C01E
:100730002EB3222391F0253091F02091EB0025FD7E
:1007400010C02091E4003091E5002817390759F3D3
:100750004150C90141F784E0089582E0089583E0A3
:10076000089581E0089580E008952091E80020FF39
:10077000DFCFF9CF2091E80022FFDACFF4CF40D0CD
:1007800042D08091D8008F778093D8008091D80094
:1007900080688093D8008091D8008F7D8093D800A6
:1007A00084E089BD86E089BD09B400FEFDCF1EBA94
:1007B00010923602109238021092370242E060E046
:1007C00080E018DF8091E1008E7F8093E1008091CE
:1007D000E20081608093E2008091E2008860809373
:1007E000E2008091E0008E7F8093E0000895E3E6D0
:1007F000F0E080818E7F808381E080933902BFCFDB
:100800001092E20008951092E10008951F920F9255
:100810000FB60F9211242F933F934F935F936F93D3
:100820007F938F939F93AF93BF93EF93FF938091A9
:10083000E10082FF0AC08091E20082FF06C0809141
:10084000E1008B7F8093E10027D28091E10080FF5F
:1008500016C08091E20080FF12C08091E2008E7F7E
:100860008093E2008091E20080618093E2008091B9
:10087000D80080628093D80019BC1EBA48DD8091F0
:10088000E10084FF2CC08091E20084FF28C084E056
:1008900089BD86E089BD09B400FEFDCF8091D800F6
:1008A0008F7D8093D8008091E1008F7E8093E1005E
:1008B0008091E2008F7E8093E2008091E20081606F
:1008C0008093E20080913602811104C08091E300A0
:1008D00087FF02C084E001C081E08EBB16DD8091FD
:1008E000E10083FF26C08091E20083FF22C0809157
:1008F000E100877F8093E10082E08EBB1092360298
:100900008091E1008E7F8093E1008091E2008E7FF4
:100910008093E2008091E20080618093E20042E0F7
:1009200060E080E067DE8091F00088608093F000F6
:10093000B3D1FF91EF91BF91AF919F918F917F9133
:100940006F915F914F913F912F910F900FBE0F903C
:100950001F9018951F920F920FB60F9211242F938C
:100960003F934F935F936F937F938F939F93AF9337
:10097000BF93CF93EF93FF938091E9008F70909195
:10098000EC0090FF02C090E801C090E0C92FC82B96
:100990001092E9008091F000877F8093F0007894B6
:1009A0001CD01092E9008091F00088608093F000E4
:1009B000CF70C093E900FF91EF91CF91BF91AF91BC
:1009C0009F918F917F916F915F914F913F912F9167
:1009D0000F900FBE0F901F9018951F93CF93DF932A
:1009E000CDB7DEB7AC970FB6F894DEBF0FBECDBF64
:1009F000EAE3F2E08091F100819322E0E234F20731
:100A0000C9F790DC8091E80083FF2EC180913A0203
:100A100090913B02953009F487C038F49130B1F1E0
:100A200070F0933009F020C131C0983009F4F2C061
:100A3000993009F4FEC0963009F016C19AC080388A
:100A400021F0823809F010C108C0809137029091DE
:100A50003802992389F082600FC080913E02909104
:100A60003F028F7099278093E9008091EB0085FB0E
:100A7000882780F91092E9009091E800977F909381
:100A8000E8008093F1001092F100CFC0882319F0A4
:100A9000823009F0E9C08F7121F0823009F0E4C0A2
:100AA0000BC080913C02813009F0DEC0933009F028
:100AB00080E0809338022FC080913C0281112BC0CE
:100AC00080913E0290913F028F709927009709F420
:100AD000CBC08093E9002091EB0020FF1CC0209147
:100AE0003B02233021F48091EB00806212C0909190
:100AF000EB0090619093EB0021E030E001C0220F09
:100B00008A95EAF72093EA001092EA008091EB00C0
:100B100088608093EB001092E9008091E800877F65
:100B20008093E800DCDDA0C081119EC080913C0272
:100B300090913D028F779927182F9091E30090783C
:100B4000982B9093E3008091E800877F8093E800E2
:100B5000C6DD8091E80080FFFCCF8091E3008068D3
:100B60008093E300112311F083E001C082E08EBB8B
:100B70007BC08058823008F077C080913C02909111
:100B80003D028C3D23E0920771F583E08A838AE27F
:100B900089834FB7F894DE01139620E03EE051E2DE
:100BA000E32FF0E050935700E49120FF03C0E2955B
:100BB000EF703F5FEF708E2F90E0EA3010F0C79635
:100BC00001C0C0968D939D932F5F243149F74FBF8D
:100BD0008091E800877F8093E8006AE270E0CE01B0
:100BE00001964BDC11C0AE01455D5F4F60913E0246
:100BF00007DC0097C9F12091E800277F2093E800E7
:100C0000BC018BA59CA597DC8091E8008B77809335
:100C1000E8002AC0803841F58091E800877F809302
:100C2000E800809136028093F1008091E8008E7791
:100C300077CF811119C090913C029230A8F4809135
:100C4000E800877F8093E8009093360248DD80912A
:100C50003602811104C08091E30087FF02C084E066
:100C600001C081E08EBB55DB8091E80083FF0AC0A4
:100C70008091E800877F8093E8008091EB0080629C
:100C80008093EB00AC960FB6F894DEBF0FBECDBFDD
:100C9000DF91CF911F9108950895CF938EB388234C
:100CA000A9F08091E9008F709091EC0090FF02C054
:100CB00090E801C090E0C92FC82B1092E900809104
:100CC000E80083FD8ADECF70C093E900CF910895DC
:100CD000CF93DF93EC014096FC018BE0DF011D9286
:100CE0008A95E9F782E08C83898783E08E8761E0CB
:100CF000CE010196B6DC882361F061E0CE01069654
:100D0000B0DC882331F061E0CE010B96DF91CF910A
:100D1000A8CC80E0DF91CF910895CF93C62F2EB35A
:100D20002430F1F4FC014489558966897789452B83
:100D3000462B472BA9F081818F708093E900809129
:100D4000E80085FF04C0C093F10080E00AC08091F4
:100D5000E8008E778093E800E1DC8823A1F301C0EE
:100D600082E0CF9108952EB3243029F5FC01448907
:100D7000558966897789452B462B472BE1F0818180
:100D80008F708093E9008091F200811102C080E0B1
:100D900008959091E8008091E8008E778093E800B4
:100DA00095FDF5CFBBDC811107C09091E8009E77DF
:100DB0009093E800089582E008952EB3243089F4DA
:100DC000FC014489558966897789452B462B472B39
:100DD00041F021812F702093E9002091E80020FD4F
:100DE000C2CF08952EB3243019F02FEF3FEF24C067
:100DF000FC014489558966897789452B462B472B09
:100E0000A1F386818F708093E9008091E80082FFD2
:100E1000ECCF8091F200882321F02091F10030E0A6
:100E200002C02FEF3FEF8091F200811105C0809149
:100E3000E8008B778093E800C901089508950F9327
:100E40001F93CF93DF93EC018091E80083FFAEC046
:100E5000888190E020913E0230913F0228173907A7
:100E600009F0A4C080913B02813261F020F480320D
:100E700009F09CC03FC0823209F470C0833209F08F
:100E800095C082C080913A02813A09F08FC080916A
:100E9000E800877F8093E8008091E80080FFFCCF26
:100EA0004C895D896E897F894093F100052F162F4B
:100EB000272F33270093F1008B012227332700933C
:100EC000F100472F5527662777274093F100888D3B
:100ED0008093F100898D8093F1008A8D8093F100D9
:100EE0008091E8008E778093E800DF91CF911F9189
:100EF0000F91F5CB80913A02813209F057C0809171
:100F0000E800877F8093E80004C08EB3882309F44B
:100F10004DC08091E80082FFF8CF3091F100209120
:100F2000F1009091F1008091F1003C8B2D8B9E8B14
:100F30008F8B8091F100888F8091F100898F809153
:100F4000F1008A8F8091E8008B778093E800C7DBFF
:100F5000CE01DF91CF911F910F9111CA80913A027A
:100F6000813221F58091E800877F8093E800B7DB2C
:100F700080913C0290913D02998B888BCE01DF914C
:100F8000CF911F910F915ACF80913A02813271F423
:100F90008091E800877F8093E800A1DB60913C02AC
:100FA000CE01DF91CF911F910F9148CFDF91CF916B
:100FB0001F910F910895A1E21A2EAA1BBB1BFD01E0
:100FC0000DC0AA1FBB1FEE1FFF1FA217B307E40728
:100FD000F50720F0A21BB30BE40BF50B661F771F80
:100FE000881F991F1A9469F7609570958095909560
:0E0FF0009B01AC01BD01CF010895F894FFCF25
:100FFE0000831000000104100000018208000001AF
:0E100E00000000000000000000000030200084
:00000001FF
